:020000040800F2
:1000000000400020890100083D0B0008D1140008C1
:100010003D0B00083D0B00083D0B000800000000F0
:100020000000000000000000000000003D0B000880
:100030003D0B0008000000003D0B00083D0B0008D0
:100040003D0B00083D0B00083D0B00083D0B000870
:100050003D0B00083D0B00083D0B00083D0B000860
:100060003D0B00083D0B00083D0B00083D0B000850
:100070003D0B00083D0B00083D0B00083D0B000840
:100080003D0B00083D0B00083D0B00083D0B000830
:100090003D0B00083D0B00083D0B00083D0B000820
:1000A0003D0B00083D0B00083D0B00083D0B000810
:1000B0003D0B00083D0B00083D0B00083D0B000800
:1000C0003D0B00083D0B00083D0B00083D0B0008F0
:1000D0003D0B00083D0B00083D0B00083D0B0008E0
:1000E0003D0B00083D0B00083D0B00083D0B0008D0
:1000F0003D0B00083D0B00083D0B00080000000010
:100100003D0B000800000000000000003D0B00084F
:100110003D0B00083D0B00083D0B00083D0B00089F
:100120003D0B00083D0B00083D0B00083D0B00088F
:100130003D0B00080000000000000000000000006F
:100140003D0B00083D0B000800000000000000000F
:10015000000000000000000000000000000000009F
:1001600000000000000000003D0B00083D0B0008EF
:100170003D0B00080000000000000000000000002F
:08018000000000003D0B000827
:1001880000F0DCFC0E480F490022814201D004C077
:10019800FBE70D480D490E4A814202D008CA08C043
:1001A800FAE70C484FF47001026842EA0102026063
:1001B800BFF34F8FBFF36F8F00F0A0FA00DE00008F
:1001C80000000020040000200000002000000020A3
:1001D800641A000888ED00E080B56F4641F2D84007
:1001E800C0F60000C72100F0E8FC80B56F468AB071
:1001F8000390049107910891132007F8010C0591C9
:100208008DF81800059801909DF81810012000F04D
:10021800BFF80146019800F0A3F805980AB080BD20
:1002280080B56F4692B0079008910F9110911220F7
:1002380007F8010C0391049001200590002098BB59
:10024800FFE705980499039A09928DF8281007F892
:10025800190C0C928DF8341007F80E0C0C980090BD
:1002680000F0F9F99DF8341000F092F800F058F811
:100278000146009800F080F805980C99029107F85B
:100288000D0CC0B2019000F0E6F90146019800F0AB
:100298005FF89DF8341000F07BF80146029800F0F2
:1002A8005FF80C9812B080BD41F2AC50C0F6000067
:1002B80001F08DF880B56F4688B00146029105912E
:1002C8000691092007F8010C03918DF81000039896
:1002D80000909DF81010012000F05AF8014600988F
:1002E80000F03EF8039808B080BD80B56F4688B02E
:1002F8000146029105910691192007F8010C039116
:100308008DF81000039800909DF81010012000F05F
:100318003FF80146009800F023F8039808B080BD24
:1003280080B56F4681B00090C04301B080BD80B5F4
:100338006F4681B007F8010C80F0010001B080BD64
:1003480080B56F4682B000900191084302B080BD2D
:1003580080B56F4682B000900191084002B080BD20
:1003680080B56F4682B00A4601460091019208683E
:100378001043086002B080BD80B56F4682B00A465F
:1003880001460091019208681040086002B080BDE3
:1003980080B56F4684B002460092C8B20B460193FE
:1003A800029207F8011C1F2807D8FFE70098019957
:1003B80001F01F01884004B080BD41F22C60C0F6F6
:1003C800000001F017F880B56F468AB004900591D7
:1003D8000691421882424FF0010078BF0020134670
:1003E8000193079200294FF0000148BF01214840BE
:1003F80007F8050C40B9FFE7019803900120029027
:10040800039809900AB080BD41F23C60C0F6000034
:100418000168406802910390FFF7DEFEFEDE80B5BA
:100428006F4640F20101C2F200010120087000F09D
:10043800C4F800F0F8F800F0B7F800F0F7F800F0AA
:100448006BF800F087F800F06DF800F0C2F800F0E3
:10045800E1F800F079F800F086F800F060F800F0B4
:100468007FF800F062F800F084F800F04FF800F030
:10047800D4F800F063F800F0C1F800F0C8F800F014
:10048800E1F800F046F800F0A1F800F08AF800F072
:1004980058F800F0B0F800F04EF800F0A0F800F0BE
:1004A800A7F800F06CF800F0AFF800F041F800F0A1
:1004B8007EF800F0B5F800F0A4F800F069F800F054
:1004C800C4F800F0BCF800F08DF800F0C1F800F0B6
:1004D8005CF800F075F800F049F800F053F800F007
:1004E8005AF800F049F800F065F800F036F800F026
:1004F80073F800F053F800F066F800F09AF800F08E
:100508009BF800F072F800F022F880BD80B56F46C5
:1005180080BD80B56F4680BD80B56F4680BD80B513
:100528006F4680BD80B56F4680BD80B56F4680BD83
:1005380080B56F4680BD80B56F4680BD80B56F467B
:1005480080BD80B56F4680BD80B56F4680BD80B5E3
:100558006F4680BD80B56F4680BD80B56F4680BD53
:1005680080B56F4680BD80B56F4680BD80B56F464B
:1005780080BD80B56F4680BD80B56F4680BD80B5B3
:100588006F4680BD80B56F4680BD80B56F4680BD23
:1005980080B56F4680BD80B56F4680BD80B56F461B
:1005A80080BD80B56F4680BD80B56F4680BD80B583
:1005B8006F4680BD80B56F4680BD80B56F4680BDF3
:1005C80080B56F4680BD80B56F4680BD80B56F46EB
:1005D80080BD80B56F4680BD80B56F4680BD80B553
:1005E8006F4680BD80B56F4680BD80B56F4680BDC3
:1005F80080B56F4680BD80B56F4680BD80B56F46BB
:1006080080BD80B56F4680BD80B56F4680BD80B522
:100618006F4680BD80B56F4680BD80B56F4680BD92
:1006280080B56F4680BD80B56F4680BD80B56F468A
:1006380080BD80B56F4680BD80B56F4680BD80B5F2
:100648006F4680BD80B56F4680BD80B56F4680BD62
:1006580080B56F4680BD80B56F46032080BD80B5EC
:100668006F4681B00090FFE7FEE780B56F4686B021
:1006780000900A460192039007F8051C0590029025
:10068800002018B9FFE7009840B90EE0029941F23E
:100698005862C0F60002012000F0A6FA00990198FD
:1006A80000F00100087006B080BD41F25860C0F645
:1006B800000000F0B9FA80B56F4686B0009001904E
:1006C80000F034F90290029830B9FFE741F268600F
:1006D800C0F6000000F035FA0298039000F036F9F1
:1006E8000490049830B9FFE741F27860C0F6000042
:1006F80000F027FA0498059006B080BD80B56F46D3
:1007080000F000F880B56F46B6B0FFF788FE01200C
:1007180007F8AA0C17F8AA1C40F20000C2F2000061
:100728000790FFF7A2FF0798FFF7C5FF329041F245
:100738000000C4F202002E9041F21400C4F202003C
:100748000690269029902A9000F014F90590279099
:10075800249000200A90FFF7E3FD01460598FFF773
:10076800F7FD0A99FFF7ECFD259024A825A9FFF7C6
:100778003CFD01460698096828912B902C912D90F4
:1007880000F067F90798FFF796FF359040F60000EC
:10079800C4F60000099031901C901F90209000F042
:1007A800E9F801460A9808911D911A91FFF7B8FDDA
:1007B80001460898FFF7CCFD0A99FFF7C1FD1B9089
:1007C8001AA81BA9FFF72CFD0146099809681E9174
:1007D80021902291239000F03CF90A9807F8A90C7F
:1007E800FFE70020322100F075F80C900D91FFE72B
:1007F8000CA800F067F8C0070028F9D1FFE717F840
:10080800A90CFFF794FD58BBFFE740F20000C2F2C5
:100818000000FFF750FF349040F60000C4F60000D7
:10082800309040F61800C4F600000490159000209F
:100838000390FFF775FD01460398FFF789FD0399BB
:10084800FFF77EFD149014A8FFF74FFD01460498AA
:100858000968169117901891199000F0FAF82AE093
:1008680040F20000C2F20000FFF725FF339040F687
:100878000000C4F600002F9040F61800C4F60000EF
:1008880002900F9000200190FFF74AFD0146019861
:10089800FFF75EFD0199FFF753FD0E900EA8FFF7D5
:1008A80009FD014602980968109111901291139060
:1008B80000F0CFF8FFE717F8A90CFFF738FD07F8A5
:1008C800A90C8EE780B56F4682B0019000F009F858
:1008D80002B080BD80B56F4682B00090019102B031
:1008E80080BD80B56F468AB0014603910691081D08
:1008F8000891099008684968884203DBFFE70020EF
:1009080004900FE00398006801900790012102917C
:10091800FFF759FD039B0199024602981A60059159
:100928000490FFE7049805990AB080BD80B56F462A
:1009380083B00090029018B9FFE70020019002E010
:1009480000980190FFE7019803B080BD80B56F461D
:1009580084B0009002900078C00728B1FFE70098A3
:1009680001300390019002E000200190FFE7019818
:1009780004B080BD80B56F4684B001900290FFE757
:1009880001980421002200F007F8FFE701980068A9
:100998000390039804B080BD80B56F4690B0029173
:1009A8000390134604930B900C9107F8092C41F21D
:1009B800B460C0F600000E904FF0553000EA5100C8
:1009C800081A4FF0333101EA900120F0CC30084486
:1009D80000EB101020F0F0304FF001314843000ECA
:1009E8000F900F98012808D1FFE703980299024653
:1009F8000192013908421AD01DE041F2B460C0F6F4
:100A0800000005900120069041F23C60C0F600000D
:100A18000168406809910A90042007900020089016
:100A280041F61801C0F6000105A800F094F80498F2
:100A3800C00720B900E003E0019840B900E006E0F3
:100A480041F2BC60C0F60000E32100F0B6F810B037
:100A580080BD80B56F4684B00091019002900391EB
:100A6800FFE701980421002200F006F8FFE700984C
:100A78000199086004B080BD80B56F4690B00191BF
:100A88000290134603930A900B9107F80D2C41F23C
:100A9800B462C0F600020D920E904FF0553000EA95
:100AA8005100081A4FF0333101EA900120F0CC30A0
:100AB800084400EB101020F0F0304FF001314843AB
:100AC800000E0F900F98012808D1FFE702980199AE
:100AD80002460092013908421AD01DE041F2B46082
:100AE800C0F6000004900120059041F23C60C0F679
:100AF80000000168406808910990042006900020D1
:100B0800079041F61801C0F6000104A800F023F888
:100B18000398C00720B900E003E0009840B900E05E
:100B280006E041F62800C0F60000E42100F045F890
:100B380010B080BD80B56F46FFE7FEE780B56F4611
:100B480080BD80B56F46024641F65C10C0F60000D5
:100B58002B2100F01FF880B56F4684B0CDE9010164
:100B680001A80122ADF80C20FFF779FD80B56F468A
:100B78008AB00DF1040C90E870430020634683E8C6
:100B880070438DF8240007A88DF82510CDE907C219
:100B9800FFF765FD80B56F4688B094460122019243
:100BA80006AA0023CDE906010092042268466146A0
:100BB800049303930292FFF7CEFF80B56F4688B087
:100BC8000022CDE906010492012303920422029235
:100BD80041F6A412C0F6000268460021019306AB54
:100BE8000093FFF7C3FFD4D480B56F468CB0CDE92E
:100BF80000010220094906910949079003900291D2
:100C0800059008A8049007480B9001A9CDE90901AF
:100C18006846089002A80021FFF7A8FF041A0008F8
:100C2800F419000823140008FEB506AF0246002098
:100C380001210490019104490390042000910021AE
:100C480002906846FFF792FF581A0008F0B503AF04
:100C58002DE9000F87B0FE681C461546814659B13C
:100C6800D9F808B01BF4001006EB50584FF02B00D1
:100C780008BF4FF4881004E0D9F808B006F101085D
:100C88002D200690B86805905FEA0B2017D4002540
:100C9800B9F80CA0D045C0F07F8020462B46D9E992
:100CA800004500902946069A204600F001F90028E0
:100CB8003FD00124204607B0BDE8000FF0BD102C3E
:100CC80041D2002C44D004F0030CA2084FF00000DD
:100CD80040D002F003026B1CCDE90364AA46A0EBE6
:100CE800820E6FF003041E19043496F9031096F966
:100CF800065096F9052011F1410F96F90460C8BF16
:100D080001300EEB040116F1410FC8BF013012F19A
:100D1800410FC8BF013015F1410FC8BF0130043180
:100D2800E1D1221D039E049C5546BCF1000F15D14C
:100D38002CE0EB6820460599324607B0BDE8000F65
:100D4800BDE8F04018472846214600F0D4F81DE0D9
:100D580000201BE00022BCF1000F17D0A95611F1AA
:100D6800410FC8BF0130BCF1010F0FD02A4492F9DE
:100D7800011011F1410FC8BF0130BCF1020F05D0BD
:100D880092F9021011F1410FC8BF01308044B9F83F
:100D98000CA0D045BFF481AF5FEACB1004940ED409
:100DA800CBF341700396AAEB08026FF35F5B002454
:100DB800AA46DFE800F040023E0214463BE0D9E9CB
:100DC80002102B46D9E900B401900020C9F6E07062
:100DD80002910840214640F0005040F03000C9F828
:100DE8000800049800905846069A00F061F8002818
:100DF80042D1AAEB08000396002586B2A8B2B042F9
:100E080007D2226958463021904701350028F5D08D
:100E180032E0E36858460599039A984760BBDDE9D4
:100E280001100024C9E90201204607B0BDE8000FFF
:100E3800F0BD90B24408D9E9005800260292A0B249
:100E4800B1B2814208D2D8F81020284659469047B6
:100E580001360028F3D00FE0049841460090284658
:100E6800069A534600F024F830B9D8F80C302846D2
:100E78000599039A984728B10124204607B0BDE890
:100E8800000FF0BD02980026001B1FFA80F9B0B2CF
:100E980048454FF0000438BF0124BFF40BAFD8F821
:100EA800102028465946904701360028EFD001E720
:100EB800F0B503AF4DF8048DD7F808801C460E46F0
:100EC800B2F5881F0AD0336911460546984701468E
:100ED800284619B101205DF8048BF0BD3CB1F368D8
:100EE800214642465DF8048BBDE8F04018470020D3
:100EF8005DF8048BF0BDF0B503AF2DE9000F82B0AB
:100F08008146033020F0030AAAEB0908414535D28F
:100F1800002946D001F0030C89084FF0000000F0CA
:100F28003282A0EB810E09F101066FF003057319F7
:100F3800043593F9032093F9064093F9051012F14B
:100F4800410F93F90430C8BF013013F1410FC8BFF6
:100F5800013011F1410FC8BF013014F1410F0EEB00
:100F68000501C8BF01300431E1D1291DBCF1000FD2
:100F780040F00E8202B0BDE8000FF0BDA1EB080EF4
:100F88005FEA9E0CC4D00EF00302CA4501D10020CE
:100F98004DE0A9EB0A0010F1040F07D90020002545
:100FA80029E0002002B0BDE8000FF0BD09F1010BF7
:100FB80000206FF003060BEB060595F9034095F941
:100FC800063095F9051014F1410F95F90450C8BF82
:100FD800013015F1410FC8BF013011F1410FC8BFF1
:100FE800013013F1410F06F10401C8BF013016F1B9
:100FF80008050E46DFD1CA4519D019F9051011F1B7
:10100800410FC8BF0130B8F1010F10D009EB05013D
:1010180091F9013013F1410FC8BF0130B8F1020F47
:1010280005D091F9021011F1410FC8BF013009EB49
:1010380008040023C2B12EF00301214491F9006095
:1010480016F1410FC8BF0123012A0DD091F90160A3
:1010580016F1410FC8BF0133022A05D091F90210D9
:1010680011F1410FC8BF0133184412E04FF00008D6
:101078003FFA88F23FFA98F31A44ACEB0B0C0AEBF0
:101088008B041BF0030102EB024200EB124040F01C
:101098004981BCF1000F3FF46DAFBCF1C00FE346CE
:1010A80028BF4FF0C00BA246BCF1040FDED36FF08F
:1010B8000F01012201EB8B01302902EB1112CDE95E
:1010C800002A03D24FF000085446ABE022F003098F
:1010D8004FF00008544694E80E04B9F10409A669D3
:1010E8006FEA010E4FEADE1545EA91116FEA020533
:1010F80021F0FE314FEAD51545EA9212414422F01B
:10110800FE320A446FEA03014FEAD11545EA931308
:1011180023F0FE3325691A446FEA0A034FEAD31312
:10112800616943EA9A13D4F8388023F0FE33D4F87F
:101138003CE01A446FEA05034FEAD31343EA9513D8
:10114800E56923F0FE331A446FEA01034FEAD3132B
:1011580043EA911121F0FE31236A11446FEA060235
:101168004FEAD21242EA9612666A22F0FE3211441F
:101178006FEA05024FEAD21242EA9512A56A22F0F6
:10118800FE3211446FEA03024FEAD21242EA931286
:10119800E36A22F0FE3211446FEA06024FEAD212E5
:1011A80042EA9612266B22F0FE3211446FEA0502DB
:1011B8004FEAD21242EA9512656B22F0FE3204F130
:1011C800400411446FEA03024FEAD21242EA931232
:1011D80022F0FE3211446FEA06024FEAD21242EAC6
:1011E800961222F0FE3211446FEA05024FEAD2123B
:1011F80042EA951222F0FE3211446FEA08024FEAE1
:10120800D21242EA981222F0FE3211446FEA0E021C
:101218004FEAD21242EA9E1222F0FE3202EB010895
:101228007FF459AF0099DDF804A011F0030E3FF4E4
:101238001FAF94E84C00BEF1010FE5686FEA0201A8
:101248004FEAD11141EA92116FEA03024FEAD21232
:1012580021F0FE3142EA9312414422F0FE32114459
:101268006FEA06024FEAD21242EA961222F0FE32E2
:1012780011446FEA05024FEAD21242EA951222F0AF
:10128800FE3202EB01083FF4F3AE04F11005BEF1A3
:10129800020F2ECD6FEA01064FEAD61646EA9111E3
:1012A8006FEA020621F0FE314FEAD61646EA92129C
:1012B800414422F0FE3211446FEA03024FEAD2128F
:1012C80042EA931222F0FE3211446FEA05024FEA15
:1012D800D21242EA951222F0FE3202EB01083FF4E4
:1012E800C7AE04F120064ECECD43ED0945EA911173
:1012F800D54321F0FE31ED0945EA9212414422F02E
:10130800FE321144DA43D20942EA931222F0FE3245
:101318001144F243D20942EA961222F0FE3202EB5D
:101328000108A5E60BF0FC0301295AF823206FEA0F
:1013380002064FEAD61646EA921222F0FE3215D07D
:101348000AEB830302295E686FEA06054FEAD515A2
:1013580045EA961626F0FE36324407D09968CB4304
:10136800DB0943EA911121F0FE310A443FFA82F188
:101378003FFA92F2114401EB014100EB114002B037
:10138800BDE8000FF0BD0021BCF1000F3FF4F2AD45
:1013980019F9012012F1410FC8BF0130BCF1010F4A
:1013A8003FF4E8AD494491F9012012F1410FC8BF5B
:1013B8000130BCF1020F3FF4DDAD91F9021011F1DB
:1013C800410FC8BF013002B0BDE8000FF0BD80B5C5
:1013D8006F4686B00146002001220490019241F632
:1013E800281203900420C0F600020290684600927A
:1013F800FFF7B1FB80B56F4686B001460020012299
:101408000490019241F6541203900420C0F60002A1
:10141800029068460092FFF79EFBB0B502AFA2B0FB
:101428008C4601680DF1080E8023812001F00F021F
:1014380002F157040A2A38BF02F130040EEB000209
:1014480002F8024C0C0929D004F00F0404F15705E6
:101458000A2C38BF04F130050C0A02F8035C1FD0CF
:1014680004F00F04043804F157050A2C38BF04F1BE
:1014780030050C0B02F8045C15D004F00F04043B93
:1014880004F157050A2C38BF04F13005090C02F89D
:10149800055CCBD1411E0346084605E0023803E04F
:1014A800013B033800E0023BC3F1810141F66022B1
:1014B8007044C0F60002CDE9000160460121022314
:1014C800FFF7C4FB22B0B0BD80B56F46FFE7FEE76B
:1014D800756E7361666520707265636F6E6469749A
:1014E800696F6E2873292076696F6C617465643A38
:1014F8002068696E743A3A756E72656163686162F4
:101508006C655F756E636865636B6564206D757384
:1015180074206E6576657220626520726561636805
:1015280065640A0A5468697320696E646963617442
:10153800657320612062756720696E207468652074
:1015480070726F6772616D2E205468697320556ED2
:10155800646566696E6564204265686176696F7264
:1015680020636865636B206973206F7074696F6EA0
:10157800616C2C20616E642063616E6E6F742062F2
:10158800652072656C696564206F6E20666F7220D5
:101598007361666574792E7372635C6D61696E2E12
:1015A800727300009F1500080B0000003600000051
:1015B80027000000433A5C55736572735C766C6172
:1015C80064695C2E7275737475705C746F6F6C638C
:1015D8006861696E735C737461626C652D78383606
:1015E8005F36342D70632D77696E646F77732D6D58
:1015F8007376635C6C69622F727573746C69622FA1
:101608007372632F727573745C6C6962726172793C
:101618002F636F72652F7372632F6F70732F6269F8
:10162800742E7273BC15000870000000F0010000F1
:101638000100000000000000000000002062757436
:10164800206973207372635C6D61696E2E7273001A
:101658004C1600080B0000001A0000000D000000E6
:101668004C1600080B0000001F0000002D000000B1
:101678004C1600080B0000001F0000003F0000008F
:1016880069735F616C69676E65645F746F3A206146
:101698006C69676E206973206E6F74206120706FAB
:1016A8007765722D6F662D74776F000088160008B5
:1016B8002A000000756E7361666520707265636F3D
:1016C8006E646974696F6E2873292076696F6C611E
:1016D8007465643A207074723A3A726561645F7630
:1016E8006F6C6174696C6520726571756972657378
:1016F80020746861742074686520706F696E746501
:101708007220617267756D656E7420697320616CF3
:1017180069676E656420616E64206E6F6E2D6E75EC
:101728006C6C0A0A5468697320696E646963617431
:10173800657320612062756720696E207468652072
:1017480070726F6772616D2E205468697320556ED0
:10175800646566696E6564204265686176696F7262
:1017680020636865636B206973206F7074696F6E9E
:10177800616C2C20616E642063616E6E6F742062F0
:10178800652072656C696564206F6E20666F7220D3
:101798007361666574792E433A5C55736572735C40
:1017A800766C6164695C2E7275737475705C746FA5
:1017B8006F6C636861696E735C737461626C652DCC
:1017C8007838365F36342D70632D77696E646F779D
:1017D800732D6D7376635C6C69622F727573746CAC
:1017E80069622F7372632F727573745C6C696272AD
:1017F8006172792F636F72652F7372632F707472C1
:101808002F636F6E73745F7074722E7273000000B2
:101818009F17000876000000C40500000D000000B6
:10182800756E7361666520707265636F6E64697446
:10183800696F6E2873292076696F6C617465643AE4
:10184800207074723A3A77726974655F766F6C616A
:1018580074696C6520726571756972657320746846
:1018680061742074686520706F696E746572206198
:101878007267756D656E7420697320616C69676E37
:10188800656420616E64206E6F6E2D6E756C6C0AD7
:101898000A5468697320696E6469636174657320AA
:1018A800612062756720696E207468652070726FA8
:1018B8006772616D2E205468697320556E64656681
:1018C800696E6564204265686176696F7220636835
:1018D80065636B206973206F7074696F6E616C2C1F
:1018E80020616E642063616E6E6F74206265207281
:1018F800656C696564206F6E20666F72207361661F
:101908006574792E617474656D707420746F2061CC
:1019180064642077697468206F766572666C6F7787
:101928000C1900081C000000617474656D70742047
:10193800746F207368696674206C656674207769B3
:101948007468206F766572666C6F770030190008CE
:101958002300000063616C6C656420604F707469DB
:101968006F6E3A3A756E77726170282960206F6ED3
:10197800206120604E6F6E65602076616C75656CC5
:101988006962726172792F636F72652F7372632F48
:1019980070616E69636B696E672E727387190008D0
:1019A8001D000000E2000000050000006D69736181
:1019B8006C69676E656420706F696E746572206407
:1019C800657265666572656E63653A206164647206
:1019D800657373206D7573742062652061206D7561
:1019E8006C7469706C65206F66200000B41900087B
:1019F8003E00000044160008080000000200000035
:101A080000000000020000000000000000000000CC
:101A1800200080E00200000000000000020000003A
:101A28000000000001000000200080E06E756C6C72
:101A380020706F696E746572206465726566657280
:101A4800656E6365206F636375727265640000007C
:0C1A5800341A0008210000003078000063
:040000050800018965
:00000001FF
